:020000040000FA
:06000000ECEF64F01200B9
:0600080004EF50F01200AD
:060018000CEF50F0120095
:06A00000ECEF64F0120019
:02A00600120046
:06A008002DEF56F01200DE
:02A00E0012003E
:06A0180036EF56F01200C5
:02A01E0002003E
:10A0200033CA0000600000002D00000023C40000BF
:08A03000AE0000000100000079
:08A0380058EC55F0FB0EDBCFE4
:10A04000F3FFDB06F35000090AE0A6EC55F0FA0E28
:10A0500011EC56F0F3E1151CF1E1010E01D0000EF8
:10A0600087EF55F058EC55F03B0EE12402E3E16830
:10A07000E652E16E010EDB6A020EDB6AF90EDBCFFF
:10A08000F6FFFA0EDBCFF7FFFB0EDBCFF8FF080081
:10A09000F550DF6EDF5002E1ABEF54F0250EDF5CD0
:10A0A00002E09EEF54F0030EDB6A040EDB6A050E3D
:10A0B000DB6A060EDB6A070EDB6AC0EC54F02D0E7D
:10A0C000DF5C0CE02B0EDF5C09E0200EDF5C06E0BD
:10A0D000230EDF5C03E0300EDF5C1AE1DF50300A54
:10A0E00014E0130A0FE0030A0AE00B0A05E0060A6F
:10A0F000E4E1030EDB80E1D7030EDB82DED7030E43
:10A10000DB84DBD7030EDB86D8D7030EDB88D5D7FD
:10A110002A0EDF5C1BE1BCEC54F00AEC55F010E0B9
:10A12000030EDB8008680968130EDBCF0DF0140EF8
:10A13000DBCF0EF006EC63F0040E06C0DBFF03D0AD
:10A14000130EF3EC54F0C0EC54F00BD0090EDB6AA4
:10A1500061EC55F003E0D5EC55F0FAD7090EF3ECBD
:10A1600054F0030EDBB0DB982E0EDF5C1BE1C0EC7D
:10A1700054F02A0EDF5C0BE1BCEC54F00AEC55F015
:10A1800003E1130E45EC55F0C0EC54F00BD0090E72
:10A19000DB6A61EC55F003E0D5EC55F0FAD7090E17
:10A1A00045EC55F0680EDF5C07E1C0EC54F0680E3A
:10A1B000DF5C1DE1030E18D0740EDF5C17E07A0E31
:10A1C000DF5C14E0480EDF5C06E0540EDF5C03E069
:10A1D0005A0EDF5C02E1020E07D06C0EDF5C03E07A
:10A1E0006A0EDF5C04E1010E98EC55F0C9DBDF502C
:10A1F0006E0A01E17FD31E0A01E192D1200A01E13A
:10A200008FD13F0A01E149D11A0A01E146D10D0A75
:10A2100001E143D1200A01E140D13A0A01E13DD1F7
:10A22000200A01E13AD1260A01E135D10D0A01E106
:10A2300032D11A0A01E1D9D0200A4AE0300A1FE0DF
:10A24000460A0EE0250A01E083D3D950F90FE96EE2
:10A25000FF0EDA20EA6E010EEE5E000EEE5AEE5AA6
:10A26000A6EC55F0250EE66E95DB03E1151C01E129
:10A2700069D3A2EC55F001E26BD3DB2A69D3080E57
:10A28000DB6A040EDB50010806E2040EDB046AEC14
:10A2900055F0DB508BDB080EDB5009E0030EDB5082
:10A2A000010B05E172DB01E04DD3080EDB6A64DBD4
:10A2B000EFCFDFFF1AEC56F003E1151C01E142D3AA
:10A2C000A2EC55F001E3DB2A60DB01E141D33AD394
:10A2D000070EDB5002080FE1E6EC55F0030EADEC83
:10A2E00055F00E0EEECFDBFF0F0EEECFDBFF100EA4
:10A2F000EECFDBFF20D0F70EDBCF17F0F80EDBCF71
:10A3000018F0020E175E000E185AF70E17C0DBFF8A
:10A31000F80E18C0DBFF17C0E9FF18C0EAFF9DEC7C
:10A3200055F0166A0E0E14C0DBFF0F0E15C0DBFFD2
:10A33000100E16C0DBFF0E0EDBCFE6FF0F0EDBCFDD
:10A34000E6FF100EDBCFE6FF43EC64F0E552E5528A
:10A35000E552130E07C0DBFF140E08C0DBFF060E2C
:10A36000DB5005E0130EE1EC55F001E26ADB05EC91
:10A3700056F002E2130E37DBC8EC55F006E0040E8F
:10A38000E1EC55F002E2050E2EDB030EDBB005D04A
:10A39000FCDA01E0D7D2080EDB6A090EDB6A0E0E8A
:10A3A000DBCFF6FF0F0EDBCFF7FF100EDBCFF8FF92
:10A3B0000800F550DF6EDF5014E00BEC56F011E2B0
:10A3C0001AEC56F003E1151C01E1BCD2BBDB01E342
:10A3D000DB2A090EDB2AD9500E0FE96E000ECBDB0B
:10A3E000E7D7D3DA01E1B4D2ADD2C6DA110EEECF9F
:10A3F000DBFF120EEDCFDBFF110EDBCFE6FF120EFF
:10A40000DBCFE6FF35EC64F0E552E552130EF3CFF7
:10A41000DBFF140EF4CFDBFF060EDB5004E0130E5F
:10A42000D0DB01E20EDB05EC56F002E2130EDBDAC4
:10A43000AFDB05E0040EC5DB02E2050ED4DA030E45
:10A44000DBB005D0A2DA01E07DD2080EDB6A090E8E
:10A45000DB6A110EDBCFE9FF120EDBCFEAFFEFCF95
:10A46000DFFFDF5014E0D7DB12E2E4DB03E1151C71
:10A4700001E168D267DB01E3DB2A090EDB2A110E5A
:10A48000DB2ADBCFE9FF120EE8E3DB2AE6D77DDA31
:10A4900001E15ED257D2030EDB8E070EDB0410E122
:10A4A00095DB040E5ADB0A0EEECFDBFF0B0EEECF70
:10A4B000DBFF0C0EEECFDBFF0D0EEECFDBFF6CD023
:10A4C000070EDB5003082CE1030EDBAE0DD0B2DA31
:10A4D000020E76DAEFCF14F0156A166A176A14AE18
:10A4E00039D01568166835D0F70EDBCF15F0F80EA9
:10A4F000DBCF16F0020E155E000E165AF70E15C0D1
:10A50000DBFFF80E16C0DBFF15C0E9FF16C0EAFF3F
:10A51000EFCF14F00A0E14C0DBFF0B0EDB6A38D04D
:10A52000070EDB50020809E1030EDBAE04D059DB55
:10A5300016AE10D00ED055DB0DD0030EDBAE12D010
:10A5400079DA020E3DDAF9DA166A176A15AE02D028
:10A5500016681768E2DA0C0E16C0DBFF0D0E17C086
:10A56000DBFF1AD0F70EDBCF16F0F80EDBCF17F0BB
:10A57000020E165E000E175AF70E16C0DBFFF80E1D
:10A5800017C0DBFF16C0E9FF17C0EAFFD6DAC5DA4D
:10A590000C0EDB6A0D0EDB6A060EDB5005E1010EC8
:10A5A000F36E050EF3CFDBFF150EDB6A160EDB6ACA
:10A5B000D950370F146E000EDA20156E390E14C004
:10A5C000DBFF3A0E15C0DBFF380EDB6A080EDB6AD4
:10A5D0000A0EAEDADF50780A12E0200A10E0280AEC
:10A5E0000CE0200A0AE03F0A06E00D0A02E0200A19
:10A5F00008E1020E05D0080E03D0080EDF26100E6B
:10A6000097DA030EDBBE02D0DB92DB94DB50800BCB
:10A6100024E08ADAD890030EEB50000A08E6000E18
:10A62000EE5C000EEE58000EEE58000EEE5815E2ED
:10A6300013DA0B680C680D680E68FDEC63F00A0E07
:10A6400002C0DBFF0B0E03C0DBFF0C0E04C0DBFF00
:10A650000D0E05C0DBFF2D0E08D0030EDBA202D0CD
:10A660002B0E03D0DBA408D0200EF36E170EF3CF11
:10A67000DBFF150EDB2A02D0170EDB6A050EDB505E
:10A6800003E1B7D901E189D0220E146ECA0E156E0E
:10A69000000E166E070EDBCF17F0186A196A1A6AD9
:10A6A00017C00BF018C00CF019C00DF01AC00EF056
:10A6B000D3D990EC64F014500224F36E15500320AB
:10A6C000F46E16500420F86EF4CFF7FFF3CFF6FFC8
:10A6D0000800090EF5CFDBFF580EDF5C0FE1610EBD
:10A6E000F36E090E7BD90AE3200E146E090EDBCF40
:10A6F000E7FF1450E75E090EE7CFDBFF070EDBCF65
:10A7000014F0156A166A176A0FDA14C00BF015C038
:10A710000CF016C00DF017C00EF0EECF06F0EECF25
:10A7200007F0EECF08F0EFCF09F090EC64F009C02D
:10A73000EDFF08C0EDFF07C0EDFF06C0EFFF390ECB
:10A74000DBCFE9FFDB063A0EDBCFEAFF01E2DB06F7
:10A75000090EDBCFEFFF150EDB2A4BD995E1030E77
:10A76000DBA61DD06F0EDF5C06E1C1D918E3150E24
:10A77000DB285BDA14D0780EDF5C09E0580EDF5C72
:10A7800006E0620EDF5C03E0420EDF5C08E1020ED1
:10A79000F36E160EF3CFDBFF02D0150EDB6A030E4D
:10A7A000DB50100B0EE0040EDBCF14F0050EDB5077
:10A7B000D880145406E2060EDB5003E1040EDB5091
:10A7C00034DA95D90AE2050EDBCFE7FF150EDB5030
:10A7D000E75E050EE7CFDBFF02D0050EDB6A040E55
:10A7E000DBCF14F0160E45D9D880145414E2160E9F
:10A7F000DBCFE6FF150EDBCFE6FF040EDBCFE6FF77
:10A80000050EDB50E552E75CE552D880E754E5528F
:10A81000D880E7545FD9030EDB50010B0BE1080E23
:10A82000DB5008E0B2D801E08DD0080EDB50BED876
:10A83000080EDB6A170EDB5007E088D9170EF1D936
:10A8400003E1151C01E17ED0160EDB5016E07ED927
:10A85000300EE66E9FD802E1151C74E077D9DFCF89
:10A86000E6FF82EC63F0E552E552E552F4CF15F0D5
:10A870000001F31C02E1151C65E0050EDBCF14F0AE
:10A88000160EDB50D880145409E2050EDBCFE7FF2B
:10A89000160EDB50E75E050EE7CFDBFF300EE66EEF
:10A8A000050ECBD94FE1390EDB2ADBCFE9FF3A0E9B
:10A8B00001E3DB2ADBCFEAFF090EEFCFDBFFDB5042
:10A8C0000EE044D9090EADD902E1151C3BE0390E6A
:10A8D000DB2ADBCFE9FF3A0EEDE3DB2AEBD755D8D5
:10A8E00031E1160EDBCFE6FF080EC3D8E552E724B0
:10A8F0005DD82ED0070EDB50030A1CE0010A14E0DD
:10A90000030A07E07BD9DBCFEEFF020EDBCFEDFFC2
:10A910001FD0F5D8196A17AE02D0186819682CD85C
:10A92000BCD819C0EEFF14D0EAD817BE186824D8D6
:10A93000B4D80ED063D9DBCFEFFF0AD07BD905E1C5
:10A94000151C03E1F368F46810D0FCD801E3DB2A9E
:10A9500079D947EF50F0010EDBCF14F0020EDBCFB8
:10A9600015F014C0F3FF15C0F4FF3B0EE15C02E2EA
:10A97000E16AE552E16ECBD029D9020EADEF55F078
:10A9800061D90800F550DF6E1200200EE66E080E49
:10A990001DEF56F082EC63F0E552E552E552F3CF3D
:10A9A00014F0F4CF15F00001F31C1200146E156AB8
:10A9B000D950010F4DD91450EE261550ED2212003A
:10A9C000185E000E195AF70E18C0DBFFF80E19C0FA
:10A9D000DBFF18C0E9FF19C0EAFF1200DBCFF4FF6C
:10A9E000F350F45C1200DB50E76E040EE7CFDBFFA0
:10A9F00012000A0EDBCF14F00B0EDBCF15F00C0E9D
:10AA0000DBCF16F00D0EDBCF17F01450151016101B
:10AA100017101200130EEECFDBFF140EEDCFDBFF8D
:10AA2000130EDBCF14F0140EDBCF15F00001800EF7
:10AA300015141200F70EDBCF18F0F80EDBCF19F06B
:10AA40001200050EDB50E66ED950130F01D9E55206
:10AA5000E750EE6EED6A12000A0EDBCF06F00B0E29
:10AA6000DBCF07F00C0EDBCF08F00D0EDBCF09F0CB
:10AA70001200DBCFE6FF150EDBCFE6FF050EDB5045
:10AA8000E552E724E552E7241200DB50CED8010E50
:10AA9000F36E060EF3CFDBFF1200EE50EFCFEAFFAE
:10AAA000E96E16C0EEFF17C0EEFF18C0EEFF1200F1
:10AAB000D9CFE6FFDACFE6FFE1CFD9FFE2CFDAFF69
:10AAC0001200DFCFE6FFE66ACAEC64F0E552E55219
:10AAD000F3501200E76E080EE7CFDBFF1200EECF57
:10AAE00014F0EECF15F0EFCF16F0176A1200050E36
:10AAF000DBCF14F0150EDB50D88014541200010E79
:10AB0000DBCF16F0020EDBCF17F0186A1200E55209
:10AB1000E5CFDAFFE7CFD9FF12000A0E14C0DBFF42
:10AB20000B0E15C0DBFF1200D9500A0F28EF56F0AC
:10AB3000F36E070EF3CFDBFF1200EECF14F0EFCF72
:10AB400015F01200010EDB2A020E1200FC0EDBCF04
:10AB5000E6FFFD0EDBCFE6FF1200145E000E155A75
:10AB6000F70E14C0DBFFF80E15C0DBFF14C0E9FFC1
:10AB700015C0EAFF1200DA20EA6EEF2AEECFF6FFE8
:10AB8000000EEF22EECFF7FFEF22EECFF8FF12001C
:10AB9000040EDBCFE6FF130EDB50E552E75C9ADFD5
:10ABA000DB5004DF060EDB501200090EDB500A0DED
:10ABB000F350DF24D00FE76E090EE7CFDBFFC0EFC5
:10ABC00054F0DB50F36E050EEEEF54F0F70EDBCFD2
:10ABD00014F0F80EDBCF15F01200DFCFE6FFCAEF5E
:10ABE00054F028DF030EECDE6FEF55F01CEC50F054
:10ABF000E552E552E552E55200091200BDDEEE5085
:10AC0000EFCFEAFFE96E010E1200130EDB50F36E78
:10AC1000040EEEEF54F0040EDB50F36E090EEEEF6F
:10AC200054F0DBCFE6FFCAEF54F0E76E050EE7CF36
:10AC3000DBFF12008BDFEDEF55F0DBCFE6FF86DFA9
:10AC4000F6EF55F0D950F90FE96EFF0EBBEF55F056
:0AAC5000E96E000EDA20EA6E120031
:06AC5A00DACFE4FFE2CFB7
:10AC6000DAFFE652E552E5CFDAFF1100D8CFE4FF74
:10AC7000E0CFE4FFE46EDACFE4FFE2CFDAFFE652A2
:10AC8000E552E5CFDAFFE550E5CFE0FFE5CFD8FFAD
:10AC9000100058EC60F0C3EC60F0F8EC5EF018ECDB
:10ACA0005CF0E66AFDEC5CF0E55212003EEC62F00E
:10ACB000000901E1FBD70F014869496949EF56F0E6
:10ACC00081B01FD0000189C014F08AC015F08BC07C
:10ACD00016F08CC017F0892B000E8A238B238C234F
:10ACE000D880580E14541B0E1554000E1654000E26
:10ACF000175406E2896B8A6B8B6B8C6B010E886F25
:10AD000011D0000188050EE189518A118B118C1137
:10AD100004E1886B010E08D005D08907000E8A5B1C
:10AD20008B5B8C5B000E00D01200D9CFE6FFE1CF29
:10AD3000D9FFFD0EDB1C146EFE0EDB1C156EFD0E26
:10AD400014C0DBFFFE0E15C0DBFFD950FD0FE96E0E
:10AD5000FF0EDA20EA6EEE2A000EED22FD0EDBCFAA
:10AD600014F0FE0EDBCF15F0146C151E000E15222C
:10AD700014C0F3FF15C0F4FF00D0E552E7CFD9FFB0
:10AD80001200D9CFE6FFE1CFD9FF040EE126DF6A3A
:10AD9000010EDB6A020EDB6A030EDB6AFE0EDBCFFE
:10ADA000E6FFDBEC5FF0E552E76E010EE7CFDBFF7D
:10ADB000FE0EDB28E66EDBEC5FF0E552DF6EDF5067
:10ADC000E66ED950020FE96EDACFEAFFE552E7509E
:10ADD000EE6EED6A020EDBCF14F0030EDBCF15F042
:10ADE00014C015F0146A020E14C0DBFF030E15C068
:10ADF000DBFF010EDB50146E156AD950020FE96EAD
:10AE0000DACFEAFF1450EE261550ED22020EDBCF0A
:10AE100014F0030EDBCF15F0060ED8901532143265
:10AE2000E804FBE1020E14C0DBFF030E15C0DBFFDC
:10AE3000020EDBCF14F0030EDBCF15F0153404E265
:10AE40001450FF08010E15541EE2020EDBCF14F061
:10AE5000030EDBCF15F01450FC0E1512020E14C0B9
:10AE6000DBFF030E15C0DBFF020EDBCFE6FF030E98
:10AE7000DBCFE6FF5ADFE552E552020EF3CFDBFFF0
:10AE8000030EF4CFDBFF020EDBCF14F0030EDBCF9B
:10AE900015F014C0F3FF15C0F4FF040EE15C03E2EB
:10AEA00000D0E16AE552E16EE552E7CFD9FF12002A
:10AEB000D9CFE6FFE1CFD9FF0C0EE126020EDB6A07
:10AEC000030EDB6AC4EC63F0040EF3CFDBFF050E68
:10AED000F4CFDBFF040EDB500001AC5D0001166E09
:10AEE000050EDB500001AD590001176E16C0E6FFDC
:10AEF00017C0E6FF68EC64F0E552E552F3CF14F0BA
:10AF0000F4CF15F0D890155004E6100E145C000E26
:10AF1000155813E2D950040FE96EDACFEAFFFF0E9D
:10AF2000EE1802E1030EED1808E0D950040FE96EA7
:10AF3000DACFEAFFEE50ED1006E1040EDBCFACF005
:10AF4000050EDBCFADF0ACC0E6FFADC0E6FF1E0ED8
:10AF5000146ECA0E156E166A14C0E6FF15C0E6FF21
:10AF600016C0E6FFD950080FE66E000EDA20E66E36
:10AF70008AEC62F0176E070EE15E1750E66AE66A29
:10AF8000D950080FE66E000EDA20E66E39EC5EF05E
:10AF9000E552E552E552E552220EF36E020EF3CF72
:10AFA000DBFF030EDB6A020EDBCF14F0DB2A030E9D
:10AFB000DBCF15F001E3DB2A1450E66EE66A1C0EC7
:10AFC000E66ECDEC5EF0E552E552E552100E146EE1
:10AFD000156AACC008F0ADC009F014C00DF015C082
:10AFE0000EF0B4EC64F0060E08C0DBFF070E09C0DB
:10AFF000DBFFDE6ADD6ADECF14F0DDCF15F0D8901E
:10B00000155004E6400E145C000E155870E2060E52
:10B01000DB50DF1804E1070EDB50DE52DD1816E1CD
:10B02000020EDBCF16F0030EDBCF17F0DE50162436
:10B03000146EDD501720156E1450E66EE66AE66851
:10B04000CDEC5EF0E552E552E5524CD0DECF14F087
:10B05000DDCF15F0080E0D6E0E6A14C008F015C095
:10B0600009F0E0EC62F004C014F005C015F01450D3
:10B07000151022E1DECF16F0DDCF17F0173404E211
:10B0800016500708000E175417E2020EDBCF16F019
:10B09000030EDBCF17F0DE501624146EDD501720A0
:10B0A000156E1450E66EE66A380EE66ECDEC5EF074
:10B0B000E552E552E55216D0020EDBCF16F0030E34
:10B0C000DBCF17F0DE501624146EDD501720156EFE
:10B0D0001450E66EE66A080EE66ECDEC5EF0E552C0
:10B0E000E552E552DF2A010E01E3DB2A84D7D9506D
:10B0F000020FE96EDACFEAFF400EEE26000EED22D7
:10B10000020EDBCFE6FFE66A1C0EE66ECDEC5EF0CB
:10B11000E552E552E5520C0EE15C02E2E16AE552CD
:10B12000E16EE552E7CFD9FF1200D9CFE6FFE1CFBC
:10B13000D9FF040EE126770EDE6EDD6A020EDB6AB1
:10B14000030EDB6A81B035D0020EDB6A030EDB6AC8
:10B15000020EDBCF14F0030EDBCF15F0D8901550A4
:10B1600004E6080E145C000E155822E2DFCF14F03E
:10B17000DF2A010EDBCF15F001E3DB2A1450E66E67
:10B18000E66A020EDBCFE9FF030EDBCFEAFF600EBB
:10B19000E926000EEA22EF50E66ECDEC5EF0E552B5
:10B1A000E552E552020EDB2A030E01E3DB2AD0D77B
:10B1B00034D0020EDB6A030EDB6A020EDBCF14F022
:10B1C000030EDBCF15F0D890155004E6080E145C82
:10B1D000000E155822E2DFCF14F0DF2A010EDBCF7C
:10B1E00015F001E3DB2A1450E66EE66A020EDBCFAF
:10B1F000E9FF030EDBCFEAFF680EE926000EEA2224
:10B20000EF50E66ECDEC5EF0E552E552E552020EEF
:10B21000DB2A030E01E3DB2AD0D7040EE15C02E255
:10B22000E16AE552E16EE552E7CFD9FF1200D9CFCE
:10B23000E6FFE1CFD9FF060EE126030EE66E5BECDA
:10B2400060F0E552F3CFDEFFF4CFDDFFE66A5BECA2
:10B2500060F0E552020EF3CFDBFF030EF4CFDBFF0D
:10B26000DECF14F0DDCF15F0D890155004E6200E97
:10B27000145C030E15582FE2040EDB6A050EDB6A20
:10B28000040EDBCF14F0050EDBCF15F0D89015506F
:10B2900004E6080E145C000E15581CE2040EDBCF09
:10B2A000E6FF020EE66E040EDBCFE9FF050EDBCFF4
:10B2B000EAFF700EE926000EEA22EF50E66ECDECB2
:10B2C0005EF0E552E552E552040EDB2A050E01E37D
:10B2D000DB2AD6D723D0040EDB6A050EDB6A040E08
:10B2E000DBCF14F0050EDBCF15F0D890155004E637
:10B2F000080E145C000E155811E2040EDBCFE6FFB9
:10B30000020EE66EE66ACDEC5EF0E552E552E552DD
:10B31000040EDB2A050E01E3DB2AE1D7020EDBCFA8
:10B3200014F0030EDBCF15F0D890155004E6200E74
:10B33000145C030E155835E2040EDB6A050EDB6A59
:10B34000040EDBCF14F0050EDBCF15F0D8901550AE
:10B3500004E6080E145C000E155822E2040EDBCF42
:10B3600014F0050EDBCF15F0080E1424E66E020E65
:10B37000E66E040EDBCFE9FF050EDBCFEAFF780EA9
:10B38000E926000EEA22EF50E66ECDEC5EF0E552C3
:10B39000E552E552040EDB2A050E01E3DB2AD0D785
:10B3A00029D0040EDB6A050EDB6A040EDBCF14F035
:10B3B000050EDBCF15F0D890155004E6080E145C8E
:10B3C000000E155817E2040EDBCF14F0050EDBCF8C
:10B3D00015F0080E1424E66E020EE66EE66ACDEC59
:10B3E0005EF0E552E552E552040EDB2A050E01E35C
:10B3F000DB2ADBD7060EE15C02E2E16AE552E16E90
:10B40000E552E7CFD9FF1200D9CFE6FFE1CFD9FF50
:10B410000E0EE126DE6ADD6A020EDB6A030EDB6ACF
:10B42000040EDB6A050EDB6A060EDB6A070EDB6ABA
:10B43000020EE66EA6DCE552F3CFDEFFF4CFDDFFB1
:10B44000DECF14F0DDCF15F0000181511518E8AE04
:10B4500002D0153404D01450805D1550815904E297
:10B46000DECF80F0DDCF81F0DECF14F0DDCF15F040
:10B4700015508519E8AE02D0853504D08451145C8E
:10B480008551155804E2DECF84F0DDCF85F0040E3F
:10B49000E66E77DCE552020EF3CFDBFF030EF4CF4E
:10B4A000DBFF020EDBCF14F0030EDBCF15F0000143
:10B4B00083511518E8AE02D0153404D01450825DC3
:10B4C0001550835906E2020EDBCF82F0030EDBCF6C
:10B4D00083F0020EDBCF14F0030EDBCF15F0155016
:10B4E0008719E8AE02D0873504D08651145C8751A5
:10B4F000155806E2020EDBCF86F0030EDBCF87F095
:10B50000DECFE6FFDDCFE6FF170E146ECA0E156E16
:10B51000166A14C0E6FF15C0E6FF16C0E6FFD95054
:10B52000080FE66E000EDA20E66E8AEC62F0176E07
:10B53000070EE15E1750E66A040EE66ED950080F5A
:10B54000E66E000EDA20E66E39EC5EF0E552E5526A
:10B55000E552E5522A0EF36E060EF3CFDBFF070E1F
:10B56000DB6A060EDBCF14F0DB2A070EDBCF15F00B
:10B5700001E3DB2A1450E66E040EE66E1C0EE66E46
:10B58000CDEC5EF0E552E552E552040EDB6A050EA5
:10B59000DB6A040EDBCF14F0050EDBCF15F0D8907C
:10B5A000155004E6460E145C000E15584AE2040ECF
:10B5B000DBCF14F0050EDBCF15F00001805114181D
:10B5C00002E1815115180DE1060EDBCFE6FF040EF6
:10B5D000E66EF00EE66ECDEC5EF0E552E552E55219
:10B5E00025D0040EDBCF14F0050EDBCF15F084510F
:10B5F000141802E1855115180DE1060EDBCFE6FFA8
:10B60000040EE66E0F0EE66ECDEC5EF0E552E552EE
:10B61000E5520CD0060EDBCFE6FF040EE66E080EF8
:10B62000E66ECDEC5EF0E552E552E552060EDB2A01
:10B63000070E01E3DB2A040EDB2A050E01E3DB2AF9
:10B64000A8D7060EDBCFE6FF040EE66E180EE66EF8
:10B65000CDEC5EF0E552E552E552020EDBCFE6FF9F
:10B66000030EDBCFE6FF100E146ECA0E156E166ABF
:10B6700014C0E6FF15C0E6FF16C0E6FFD950080F5C
:10B68000E66E000EDA20E66E8AEC62F0176E070EA8
:10B69000E15E1750E66A060EE66ED950080FE66EB8
:10B6A000000EDA20E66E39EC5EF0E552E552E55226
:10B6B000E5522A0EF36E060EF3CFDBFF070EDB6AB0
:10B6C000060EDBCF14F0DB2A070EDBCF15F001E30B
:10B6D000DB2A1450E66E060EE66E1C0EE66ECDEC0E
:10B6E0005EF0E552E552E552040EDB6A050EDB6AB8
:10B6F000040EDBCF14F0050EDBCF15F0D8901550FB
:10B7000004E6460E145C000E155847E2040EDBCF2B
:10B7100014F0050EDBCF15F000018251141802E180
:10B72000835115180CE1060EDBCFE6FFE66EF00E36
:10B73000E66ECDEC5EF0E552E552E55223D0040E04
:10B74000DBCF14F0050EDBCF15F08651141802E1A3
:10B75000875115180CE1060EDBCFE6FFE66E0F0EE3
:10B76000E66ECDEC5EF0E552E552E5520BD0060EEA
:10B77000DBCFE6FFE66E080EE66ECDEC5EF0E5523E
:10B78000E552E552060EDB2A070E01E3DB2A040E22
:10B79000DB2A050E01E3DB2AABD7060EDBCFE6FF83
:10B7A000E66E180EE66ECDEC5EF0E552E552E5521F
:10B7B0000E0EE15C02E2E16AE552E16EE552E7CF8E
:10B7C000D9FF120056EC56F058EC57F0AEDC2FDDE6
:06B7D0001BDEFAD7120097
:0AB7D600D9CFE6FFE1CFD9FF020E44
:10B7E000E126FD0EDBCF14F0DB06FE0EDBCF15F0FD
:10B7F00001E2DB061450151011E0DE6ADD6ADECFCF
:10B8000014F0DDCF15F0E30E145C0D0E155805E2B3
:10B81000DF2A010E01E3DB2AF2D7E3D7020EE15C57
:10B8200002E2E16AE552E16EE552E7CFD9FF12008C
:10B83000D9CFE6FFE1CFD9FF060EE1268D92969291
:10B840008D9096908D8496948A9A939A8C92DE6AC3
:10B85000DE6ADE6ADD6ADD52DD52D9CFE9FFDACF7A
:10B86000EAFF640EEE5C000EEE58000EEE58000E7D
:10B87000EE580AE2D9CFE9FFDACFEAFFEE2A000E4E
:10B88000EE22EE22EE22E9D78C82DE6ADE6ADE6AE2
:10B89000DD6ADD52DD52D9CFE9FFDACFEAFF640E6F
:10B8A000EE5C000EEE58000EEE58000EEE580AE266
:10B8B000D9CFE9FFDACFEAFFEE2A000EEE22EE2220
:10B8C000EE22E9D7AE0EE66E70D8E552DB0EE66EDC
:10B8D0006CD8E552230EE66E68D8E552D90EE66EB6
:10B8E00064D8E552220EE66E60D8E552A10EE66EEF
:10B8F0005CD8E552C80EE66E58D8E552DA0EE66E10
:10B9000054D8E552120EE66E50D8E552A80EE66EF7
:10B910004CD8E5523F0EE66E48D8E552D50EE66E9D
:10B9200044D8E552A00EE66E40D8E552810EE66E90
:10B930003CD8E552600EE66E38D8E552D30EE66E7E
:10B9400034D8E552E66A31D8E552A60EE66E2DD817
:10B95000E552AD0EE66E29D8E5528B0EE66E25D87F
:10B96000E552AF0EE66E21D8E5520A0EE66EE66AA3
:10B9700032DFE552E552A40EE66E17D8E552400ECE
:10B98000E66E13D8E552020EE66E0FD8E552100EA1
:10B99000E66E0BD8E552060EE15C02E2E16AE55282
:10B9A000E16EE552E7CFD9FF1200D9CFE6FFE1CF34
:10B9B000D9FF956AFE0EDB508C6E8D808D828A9A3F
:10B9C0008D948D928D828D849568E552E7CFD9FF55
:10B9D0001200D9CFE6FFE1CFD9FF956AFE0EDB500A
:10B9E0008C6E8D808D828A8A8D948D928D828D84CD
:10B9F0009568E552E7CFD9FF1200D9CFE6FFE1CF36
:10BA0000D9FF020EE126B00EDF6EB80EDF5C23E236
:10BA1000DFCFE6FFCADFE552020EE66EC6DFE55273
:10BA2000100EE66EC2DFE552010EDB6ADB50146ECB
:10BA3000156AD890155004E6840E145C000E155853
:10BA400008E2FE0EDBCFE6FFC4DFE552010EDB2A83
:10BA5000EDD7DF2ADAD7020EE15C03E200D0E16A1B
:10BA6000E552E16EE552E7CFD9FF1200D9CFE6FFEC
:10BA7000E1CFD9FF200E146EFE0EDBCFE7FF14508E
:10BA8000E75EFE0EE7CFDBFFDBCFF6FFF76AF6BE21
:10BA9000F768050EF702F3CFF7FFF602F3CFF6FFD4
:10BAA000F450F726480EF626C20EF7220800F5508D
:10BAB000E66E8FDFE552FE0EDBCFF6FFF76AF6BECD
:10BAC000F768050EF702F3CFF7FFF602F3CFF6FFA4
:10BAD000F450F726480EF626C20EF722010EF6267F
:10BAE000000EF7220800F550E66E73DFE552FE0EF9
:10BAF000DBCFF6FFF76AF6BEF768050EF702F3CF65
:10BB0000F7FFF602F3CFF6FFF450F726480EF626BD
:10BB1000C20EF722020EF626000EF7220800F5509C
:10BB2000E66E57DFE552FE0EDBCFF6FFF76AF6BE94
:10BB3000F768050EF702F3CFF7FFF602F3CFF6FF33
:10BB4000F450F726480EF626C20EF722030EF6260C
:10BB5000000EF7220800F550E66E3BDFE552FE0EC0
:10BB6000DBCFF6FFF76AF6BEF768050EF702F3CFF4
:10BB7000F7FFF602F3CFF6FFF450F726480EF6264D
:10BB8000C20EF722040EF626000EF7220800F5502A
:10BB9000E66E1FDFE552E66A1CDFE55200D0E55293
:10BBA000E7CFD9FF1200D9CFE6FFE1CFD9FFE652A8
:10BBB000FD0EDBCFE6FFF9DEE552020E146EFC0E41
:10BBC000DBCFE7FF1450E726FC0EE7CFDBFFDB50AF
:10BBD0000F0BE66EEADEE552FC0EDB380F0B0F0BA7
:10BBE000100FE66EE2DEE552FE0EDBCFE6FF3EDF33
:10BBF000E55200D0E552E552E7CFD9FF1200D9CF88
:10BC0000E6FFE1CFD9FFFC0EDB50B00FE76EFC0E74
:10BC1000E7CFDBFFFB0EDBCFE6FFFC0EDBCFE6FF63
:10BC2000FD0EDBCFF6FFFE0EDBCFF7FF0800F55071
:10BC3000E66EB9DFE552E552E552FD0EDB2ADBCFB9
:10BC4000F6FFFE0E01E3DB2ADBCFF7FF0800F5501D
:10BC50000CE0FD0EDBCFF6FFFE0EDBCFF7FF08009A
:10BC6000F550E66E03DFE552E8D7E552E7CFD9FF9E
:10BC70001200D9CFE6FFE1CFD9FFFC0EDB50B00FA9
:10BC8000E76EFC0EE7CFDBFFFB0EDBCFE6FFFC0E23
:10BC9000DBCFE6FFFD0EDBCFE9FFFE0EDBCFEAFFD9
:10BCA000EF50E66E80DFE552E552E552FD0EDB2AED
:10BCB000DBCFE9FFFE0E01E3DB2ADBCFEAFFEF502B
:10BCC0000BE0FD0EDBCFE9FFFE0EDBCFEAFFEF500E
:10BCD000E66ECCDEE552EAD7E552E7CFD9FF120097
:10BCE000D9CFE6FFE1CFD9FF050EE126030EDB6ACF
:10BCF000040EDB6A020E146EFA0EDBCFE7FF14505F
:10BD0000E726FA0EE7CFDBFFF90EDB50B00FDF6E50
:10BD1000FB0EDB50B00FDF5C35E2DFCFE6FF45DE28
:10BD2000E552FA0EDB500F0BE66E3FDEE552FA0EDF
:10BD3000DB380F0B0F0B1009E66E37DEE552010EF4
:10BD4000DB6AFC0EDB50F36E010EDBCFF4FFF35029
:10BD5000F45C16E2030EDB2A040E01E3DB2AFD0E7F
:10BD6000DBCFF6FFDB2AFE0EDBCFF7FF01E3DB2A9A
:10BD70000800F550E66E2DDEE552010EDB2AE1D714
:10BD8000DF2AC6D7050EE15C03E200D0E16AE55286
:10BD9000E16EE552E7CFD9FF1200D9CFE6FFE1CF40
:10BDA000D9FFFD0EDB50B00FE66EFFDDE552020E4F
:10BDB000146EFC0EDBCFE7FF1450E726FC0EE7CF36
:10BDC000DBFFDB500F0BE66EF0DDE552FC0EDB38DF
:10BDD0000F0B0F0B100FE66EE8DDE552FE0EDBCF0A
:10BDE000E6FFF7DDE55200D0E552E7CFD9FF1200BC
:10BDF000D9CFE6FFE1CFD9FF030EE12659D8736A08
:10BE0000820E726E739C94949396958C7288728A4B
:10BE1000949EE66AD0D8E552E76E020EE7CFDBFFCC
:10BE20000000D950020FE96EDACFEAFFEF50070B9E
:10BE3000020801E00000140EE66EBDD8E552E76E80
:10BE4000020EE7CFDBFF020EDB96DB88020EDB8003
:10BE5000DB92DB94020EDBCFE6FF140EE66E3AD8DF
:10BE6000E552E552010EE66EA6D8E552DE6EDD6AB9
:10BE70000000110EE66E9FD8E552DE6EDD6A00000E
:10BE8000E66A110EE66E26D8E552E5520000110E64
:10BE9000E66E91D8E552DE6EDD6A0000030EE15CCD
:10BEA00002E2E16AE552E16EE552E7CFD9FF120006
:10BEB000550EA76EAA0EA76E0E01FF91090ECC6F4C
:10BEC0000A0ED36F170EFB6F550EA76EAA0EA76E44
:10BED000FF811200D9CFE6FFE1CFD9FFE652DF6A3A
:10BEE000FE0EDB50140804E0FE0EDB50340806E1C1
:10BEF000140EE66E60D8E552E00BDF6E8B9EA49EBA
:10BF0000FE0EDB50756EA4AEFED7000000000000F0
:10BF10000000000000000000000000000000000021
:10BF20000000000000000000000000000000000011
:10BF30000000000000000000000000000000000001
:10BF400000000000000000000000000000000000F1
:10BF500000000000000000000000000000000000E1
:10BF600000000000000000000000000000000000D1
:10BF700000000000000000000000000000000000C1
:10BF800000000000000000000000A49EFE0EDB5038
:10BF90000A0805E1FD0EDB507F0B756E04D0FD0E27
:10BFA000DB50DF10756EA4AEFED78B8EE552E552E6
:10BFB000E7CFD9FF1200D9CFE6FFE1CFD9FF8B9EA3
:10BFC000A49EFE0EDB508009756EA4AEFED7000065
:10BFD0000000000000000000000000000000000061
:10BFE0000000000000000000000000000000000051
:10BFF0000000000000000000000000000000000041
:10C000000000000000000000000000000000000030
:10C010000000000000000000000000000000000020
:10C020000000000000000000000000000000000010
:10C030000000000000000000000000000000000000
:10C040000000000000000000000000000000A49EAE
:10C05000756AA4AEFED78B8E755000D0E552E7CF3F
:04C06000D9FF1200F2
:0CC06400030EB16EB392B390B396B28895
:10C07000B28EB290B292A494B38E12002F0E926E32
:10C080000F01E00E486F1F0E496FC18EC19CC70E95
:10C09000C1140809C16EF80EC1140209C16E498F9E
:10C0A000C29CC29EC30EC2140809C26EC280120096
:10C0B000D9DF3EEF60F0D9CFE6FFE1CFD9FF020E26
:10C0C000E126FE0EDB500F0BF36EF346F346C30E74
:10C0D000C214F310C26EFE0EDB50EA6AA80FE96EBE
:10C0E000000EEA22EF503F0BF36EF346F346030EC9
:10C0F000B114F310B16EB38EB382000000000000E3
:10C10000000000000000000000000000000000002F
:10C11000000000000000000000000000000000001F
:10C120000000B392B2800000000000000000000098
:10C1300000000000000000000000000000000000FF
:10C140000000000000000000000000000000B290AD
:10C150009E9CC2829EACFED7C3CFDEFFC4CFDDFF64
:10C16000DECF14F0DDCF15F014C0F3FF15C0F4FFDF
:10C1700000D0020EE15C02E2E16AE552E16EE552B6
:10C18000E7CFD9FF1200D9CFE6FFE1CFD9FF030EE9
:10C19000E126020EDB6A040EF36E020EDBCFF4FF23
:10C1A000F350F45C21E22AD8EF6A30D80CE226D8AA
:10C1B000EF501F0803E122D8EF6A13D01FD8EF2AEF
:10C1C00025D8F5E30ED02CD80CE218D8EF50E108B2
:10C1D00003E114D8EF6A05D011D8EF062BD820D888
:10C1E000F4E3020EDB2AD7D7030EE15C02E2E16A38
:10C1F000E552E16EE552E7CFD9FF1200020EDB50A7
:10C20000EA6AA80FE96E000EEA22120013D8DECF08
:10C2100014F0DDCF15F0200E145C030E155812003B
:10C22000D9CFE9FFDACFEAFF200ED880EE54030E13
:10C23000ED541200020EDBCFE6FF3DDFE552F3CFF7
:08C24000DEFFF4CFDDFF120068
:08C24800000000000000004F9F
:10C2500000000007000700147F147F14242A7F2A9F
:10C26000122313086462364955225000050300006A
:10C27000001C2241000041221C0014083E08140842
:10C28000083E080800503000001818181818181830
:10C29000FF181820100804023E5149453E00427F15
:10C2A000400042615149462141454B311814127FEB
:10C2B0001027454545393C4A494930017109050374
:10C2C0003649494936064949291E003636000000DC
:10C2D00056360000081422410014141414140041AE
:10C2E0002214080201510906324979413E7E11119A
:10C2F000117E7F494949363E414141227F414122D9
:10C300001C7F494949417F090909013E4149497A50
:10C310007F0808087F00417F41002040413F017FA6
:10C32000081422417F404040407F020C027F7F047E
:10C3300008107F3E4141413E7F090909063E4151B7
:10C34000215E7F09192946464949493101017F018A
:10C35000013F4040403F1F2040201F3F4038403FAA
:10C3600063140814630708700807615149454300C6
:10C370007F41410002040810200041417F00040277
:10C380000102044040404040000102040020545497
:10C3900054787F484444383844444420384444481E
:10C3A0007F3854545418087E0901020C5252523EF0
:10C3B0007F0804047800447D40002040443D007F15
:10C3C0001028440000417F40007C041804787C0859
:10C3D00004047838444444387C14141408081414B1
:10C3E000187C7C080404084854545420043F4440FA
:10C3F000203C4040207C1C2040201C3C4030403CE5
:10C4000044281028440C5050503C4464544C440080
:10C410000836410000007F0000004136080002019C
:03C4200002040211
:01C423000018
:0CC424000001AEB122D0AE838B8094905A
:10C43000550EA76EAA0EA76E0E01FF910E0ED16FBC
:10C44000550EA76EAA0EA76EFF810F0EBA6ECF0E05
:10C45000BA140009BA6EBB6A0F01526B800ECB6E24
:10C46000040ECA6EA496600E776E7F0E766E120072
:10C470000001AE91AE938B80949012000001AEA1AA
:10C4800009D08B50010B04E19450010B01E1010C28
:10C49000AE91C8DF0001AEA3C5DFA4A63AD0A49632
:10C4A000BA50300BE842E842E842E842030819E19A
:10C4B000400EBB5C10E18B909490BA6ACA6A0E0180
:10C4C000D16B0F01526BCB68766A7768A496000136
:10C4D000AE81AE93010CBB2ACF0EBA140009BA6E1E
:10C4E000000CBA0EE96E0F0EEA6EEF50300BE84208
:10C4F000E842E842E842E82AE850030BF36EF46EA3
:10C50000F346F346F346F346CF0EEF14F310EF6E07
:04C51000F450000CD7
:0CC51400D9CFE6FFDACFE6FFE1CFD9FF78
:10C52000E2CFDAFFE652E652E652E652D950F90F70
:10C53000146EFF0EDA20156E020E14C0DBFF030E20
:10C5400015C0DBFF020EDBCFE6FF030EDBCFE6FFFD
:10C55000F90EDBCFE6FFFA0EDBCFE6FFFB0EDBCFFB
:10C56000E6FFD950FC0FE66EFF0EDA20E66E32ECE5
:10C5700050F0146E070EE15C02E2E16AE552E16EF2
:10C580001450F3CFDEFFF4CFDDFFFC0EDBCFE9FF6D
:10C59000FD0EDBCFEAFFEF6ADECF14F0DDCF15F042
:10C5A00014C0F3FF15C0F4FF040EE15C02E2E16A7F
:10C5B000E552E16EE552E5CFDAFFE7CFD9FF120091
:10C5C000006A0EAEE9EF62F00D6C0E1EE86A0E22F4
:10C5D000001E09AEF1EF62F0086C091EE86A09223C
:10C5E000001EB4EC64F009BE01EF63F000AE000C75
:10C5F000086C091EE86A0922046C051EE86A052217
:10C60000000C00BEF8EF62F00188FF0C09C013F0C7
:10C6100008C012F008500D02F4CF07F0F3CF06F077
:10C6200009500E02F4CF09F0F3CF08F00D02F350D9
:10C630000726F4500822E86A092212500E02F3502D
:10C640000726F4500822E86A09220EAE2CEF63F0A8
:10C650001250085E1350095A13AE000C0D50085EBC
:06C660000E50095A000C07
:0AC666001E0EF66EA00EF76E000E19
:10C67000F86E00010900F5509D6F0900F5509E6F9E
:10C6800003E19D6701D03DD00900F550986F090086
:10C69000F550996F0900F5509A6F09000900F5509F
:10C6A000E96E0900F550EA6E090009000900F5502D
:10C6B0009B6F0900F5509C6F09000900F6CF9FF0B1
:10C6C000F7CFA0F0F8CFA1F098C0F6FF99C0F7FF20
:10C6D0009AC0F8FF00019B5302E19C5307E0090058
:10C6E000F550EE6E9B07F8E29C07F9D79FC0F6FF66
:10C6F000A0C0F7FFA1C0F8FF00019D07000E9E5BE0
:04C70000BFD712008D
:0CC70400D9CFE6FFDACFE6FFE1CFD9FF86
:10C71000E2CFDAFFFB0EDBCF14F0FC0EDBCF15F01F
:10C720000001800E15141AE1FB0EDBCFE9FFFC0EB1
:10C73000DBCFEAFFEECFF3FFEDCFF4FFEE2A000EE2
:10C74000EF22F3CFE9FFF4CFEAFFFD0EDBCFEFFFDF
:10C75000EF50156AF36E15C0F4FF10D0FB0EDB50DE
:10C76000FE0806E1FD0EDBCFE6FFFAEC64F005D033
:10C77000FD0EDBCFE6FF03EC50F0E552E552E5CFCE
:08C78000DAFFE7CFD9FF120038
:08C78800D9CFE6FFE1CFD9FF94
:10C79000020EE126130EC26EC2B2FED7C450DE6E88
:10C7A000DD6ADECF14F0DDCF15F014C015F0146A89
:10C7B00014C0DEFF15C0DDFFC350E76E000EDFCFF3
:10C7C00014F0010EDBCF15F0E750141214C0DEFF99
:10C7D00015C0DDFFDECF14F0DDCF15F014C0F3FF80
:10C7E00015C0F4FF020EE15C03E200D0E16AE552FD
:0AC7F000E16EE552E7CFD9FF120019
:06C7FA0006500B02F3CF14
:10C8000002F0F4CF03F00C02F3500326000EF420E4
:10C81000046E06500D02F3500426000EF420056E3F
:10C8200006500E02F350052607500B02F350032664
:10C83000F4500422000E052207500C02F350042687
:10C84000F450052207500D02F350052608500B0244
:10C85000F3500426F450052208500C02F35005262C
:0AC8600009500B02F35005261200E8
:06C86A00FE0EE3CFE9FF22
:10C87000FF0EE3CFEAFFF36AF46AEE5203E0F34AF5
:10C88000F42AFBD71200FF0EE3CFF8FFE552FF0EAC
:10C89000E3CFF7FFE552FF0EE3CFF6FFE552E66A7E
:10C8A000E66AE66A0900F55209E0FD0EE32A05E1B1
:10C8B000FE0EE32A02E1FF0EE32AF4D7FD0EE3CFDA
:10C8C00007F0FE0EE3CF08F0FF0EE3CF09F01200F1
:10C8D000D9CFE6FFE1CFD9FFFD0EDBCF16F0FE0E7C
:10C8E000DBCF17F00001800E17140BE0FD0EDBCF3D
:10C8F00014F0FE0EDBCF15F0146C151E000E152281
:10C9000006D0FD0EDBCF14F0FE0EDBCF15F014C009
:10C91000F3FF15C0F4FF00D0E552E7CFD9FF1200B6
:10C92000056A046A036A026A200EE76ED89006362A
:10C9300007360836093602360336043605360B50FC
:10C94000025C0C5003580D5004580E50055809E372
:10C950000B50025E0C50035A0D50045A0E50055AEB
:08C96000062AE72EE4D71200BD
:08C96800056A046A100EE76E77
:10C97000D89008360936043605360D50045C0E5042
:10C98000055805E30D50045E0E50055A082AE72E9F
:04C99000F0D71200CA
:0CC99400F36AF46AFF0EE124E96EFF0E66
:10C9A000E220EA6EED6607D02F0EEF6404D03A0E57
:08C9B000EF6001D0F32A120030
:08C9B800C00EF36E00EE00F06A
:10C9C0000E0E01D81200EA6002D0EE6AFCD7F350D6
:08C9D000E9601200EE6AFCD7D9
:08C9D8001DEE00F02DEE00F051
:10C9E000F86A019C33EC63F007EC50F0E2EC5BF08A
:04C9F000FBD712005F
:0CC9F400FF0EE350ADBA04D0B06AAC8E68
:10CA0000AD8A949CADA2FED7AE6EF36EF46A1200AE
:10CA1000593A2025336400583A20253364002534E0
:02CA20006400B0
:0ECA220030313233343536373839616263646F
:03CA300065660038
:0DCA3300E799A55A5AA599E718665AA5A5D6
:10CA40005A6618183C7EFF1818183C3C181818FF36
:10CA50007E3C180000000000000000000000000004
:01FFF800AA5E
:01FFF900F710
:01FFFA001FE7
:01FFFB00FF06
:01FFFC0063A1
:01FFFD00F80B
:01FFFE008181
:01FFFF00F110
:00000001FF
